:0A0000000C948C000C945B020C942D
:10000A005E020C9400000C9400000C9400000C9406
:10001A0000000C9400000C9400000C9400000C9456
:10002A0000000C9400000C9400000C9400000C9446
:10003A0000000C9400000C9400000C9400000C9436
:10004A0000000C9400000C9400000C9400000C9426
:10005A0000000C9400000C9400000C94000010277F
:10006A00E80364000A00010000100001100001000A
:10007A000000000053657420686F757200257500D2
:10008A002020202020202020202000536574206D6D
:10009A00696E7574650053657420646174650053F4
:1000AA006574206D6F6E746800416C61726D2068B2
:1000BA006F757200416C61726D206D696E75746541
:1000CA000057616E7420616E20616C61726D203F11
:1000DA00004F4646004F4E0025753A25753A25755C
:1000EA00202020202020202020200025752F257563
:1000FA002F2575202020202020202020200080C0AD
:10010A00040003007A0002000E0308010000F894BC
:10011A00EE27EFBBF1E0F5BFE5BF8DE0A2E0BB271C
:10012A00ED938A95E9F780E098E0A0E0B1E0ED93DD
:10013A000197E9F7EAE0F1E085919591009761F07E
:10014A00A591B59105901590BF01F00105900D920A
:10015A000197E1F7FB01F0CFE0E0EEBBEFEFEDBF77
:10016A00E8E0EEBFC0E0D3E00C946E02E5B1E660D1
:10017A00E5B9E4B1E660E4B908951A931A2F10308C
:10018A0011F0229A01C022980C94E703D0D429983E
:10019A000EC02A9A8BE08A95F1F7C9D4CDD4D1D46E
:1001AA000895CAD4299A8DE08A95F1F72A9A8DE0A2
:1001BA008A95F1F708951A930A938D01F801D0D61A
:1001CA00AAE0B0E0D6D6DF01F801EF70F070EA0FCE
:1001DA00FB1F0EC01A930A938D01EAE0F0E0D1D614
:1001EA00B6D6BF01D801EAE0F0E0DED6E60FF71F87
:1001FA00099119910895BA93AA9397D620E030E00D
:10020A0000E010E00830E0E01E07A0F4EE81FF8174
:10021A00E078F0709F012A98022E032A09F02A9AA0
:10022A00B5DFEE81FF81EE0FFF1FEE83FF830F5FC5
:10023A001F4FE8CFA0E0A1DF299A85E08A95F1F760
:10024A00E3B1E4704E2F552781D4A1E096DFFA017D
:10025A0073D6289608958ADF7ED4A7E0B0E0CBDF74
:10026A00A0E0B0E0C8DF46C060D6AD0120E030E0D3
:10027A00A0E083DF66D400E010E00830E0E01E076B
:10028A0048F4299A220F331F1A9921605FD40F5F0D
:10029A001F4FF3CFA1E071DF042E052A11F02A982F
:1002AA0001C02A9A44D44DD4F90146D62696089517
:1002BA0052D4A0E0B0E09FDF6CDFA1EDB0E09BDF9D
:1002CA004ED4BE2ECF2E4BD49E2EAF2E48D47E2E89
:1002DA008F2E45D4DE2EEF2E42D446D440D449D4B4
:1002EA00A0E0B0E0C1DFDF0166DF48D44CD4E053C0
:1002FA00F84F44D456DF08954BD4A0E050D4A1E07F
:10030A0056D4A2E05CD42A96089542D4A3E0B0E081
:10031A0072DFAA85BB855EDFDF016DDF42DF1BD49A
:10032A00A4E03DD4A5E043D4A6E049D42C96089590
:10033A002D9B02C02D9801C02D9AE1E0F0E03E0EFF
:10034A004F1E46D414F433244424A4EFB1E045D418
:10035A0008952D9B02C02D9801C02D9AE1E0F0E08E
:10036A005E0E6F1EE2E0F0E0E515F60514F4552482
:10037A006624A6E9B0E031D438D411F03BD411F4A4
:10038A003ED409F00CC0E1E0F0E07E0E8F1EE7E1FA
:10039A00F0E0E715F80514F47724882435D43BD423
:1003AA0011F03ED411F42BD409F00CC0E1E0F0E0D6
:1003BA009E0EAF1EEBE3F0E0E915FA0514F499245A
:1003CA00AA2422D432D411F035D411F418D409F065
:1003DA001BC035D43196C8D337D411F43BD409F0B5
:1003EA0007C041D45E971CF0E1E0F0E0BDD30BC03A
:1003FA002BD411F42FD409F406C035D45D971CF020
:10040A00E1E0F0E0B1D334D443D411F046D411F48E
:10041A00F6D309F00DC046D43196ABD3A0910203AE
:10042A00B09103031D971CF0E1E0F0E0A2D320D4C1
:10043A003ED411F041D411F4E2D309F00DC041D4F5
:10044A003196E0930603F0930703A0910603B09157
:10045A00070358970CF03AD43FD411F042D411F460
:10046A00CED309F00DC042D43196E0930803F0933D
:10047A000903A0910803B0910903DC970CF03BD45F
:10048A0040D411F0A5D311F4BAD309F00EC03ED46A
:10049A003196E0930C03F0930D033DD412972CF0A0
:1004AA00E0E0E0930C03E0930D03089539D440DFB4
:1004BA0002C036D44EDFE991EFBFF991E991B991C3
:1004CA00A9919991899179916991F99019900990D5
:1004DA001895549A259AE5B1E070E5B9EAB1E37F37
:1004EA00EAB9EBB1EC60EBB9E0916900E260E09344
:1004FA006900E0916900EE7FE0936900EDB3E36083
:10050A00EDBB7894E3D3F7D3E7E1F0E07E2E8F2EAC
:10051A00EBE3F0E09E2EAF2EEDE2F0E0BE2ECF2E02
:10052A00E3E0F0E0DE2EEF2EECE1F0E01DD3E2E0B6
:10053A00F0E01FD3E7E1F0E021D38DDE65D398D355
:10054A00E7E2EA93A0E140D1B3DEA0910A03B091B9
:10055A000B0300240A160B0650F4A1E02AD1AAE0E4
:10056A00B3E0ED91FD913197FE93EE9302C0A0E0C6
:10057A0020D13BD311F03ED371F4EFD0A1E019D1D1
:10058A00DDD3A4E6B0E07AD5D9D3E3D3E7D3F5D364
:10059A00F8D3E4D394C03FD311F042D351F4F9D342
:1005AA00FDD304D4FBD3D5D308D4E7D3EAD305D4F7
:1005BA0086C03BD311F03ED351F4EBD30DD4F6D31E
:1005CA000BD4C7D311D4D9D3DCD30ED478C060D31B
:1005DA0011F063D351F4DDD315D4E8D313D4B9D3CE
:1005EA0019D4CBD3CED316D46AC061D311F064D355
:1005FA0051F4CFD31DD4DAD31BD4ABD321D4BDD37A
:10060A00C0D31ED45CC068D311F06BD351F4C1D3EC
:10061A0025D4CCD323D49DD329D4AFD3B2D326D4D3
:10062A004EC06FD311F0D4D2F9F4B3D32DD4BED3C4
:10063A002BD46CD3309741F48CD3EBEDF0E02CD46F
:10064A00A0D3EBEDF0E00AC066D3119761F481D331
:10065A00EFEDF0E021D495D3EFEDF0E0FA93EA93D1
:10066A0080E01ED224962BC000240314040429F02F
:10067A00E1E0F0E0E315F40511F51ADEE0E0EA93B3
:10068A00EA93E2EEF0E0FA93EA93E72DF82D0AD422
:10069A00E92DFA2D07D4EB2DFC2D04D48CE000D2E1
:1006AA00609657D3E5EFF0E0FA93EA93C8D2FAD30B
:1006BA00F9D2F8D368D2F6D38CE0F2D1609601D39E
:1006CA00E715F80539F412D3E915FA0519F423D315
:1006DA00119709F008C05C9AA4EFB1E0CFD45C98F6
:1006EA00A4EFB1E0CBD430CFFFCFE2D3A091130374
:1006FA00E6D368C0DDD3E095A0911303EA23E4D3DF
:10070A0061C01A931A2FE0911203EA93E09113033E
:10071A00EF70AE2FE12FE07FD2D3A4E0E6DFA4E0B2
:10072A00E9DF50C0AA93A881ECDFE881E295E8836B
:10073A00A881E7DF85E88A95F1F721960895C8D35D
:10074A00E12FF0E0E25FFC4FE081E00FAE2FEADF3D
:10075A00009314031093150369C0A2E0BED3ACE062
:10076A00E1DFA1E0BAD3E0E0E0931503E0931403DC
:10077A0008951A931A2F1A3031F0E0911603A091B6
:10078A001403AE1750F0E0E0EA93A0911503AF5FAF
:10079A00A0931503D4DF1A30A9F0E0911403EF5F98
:1007AA00E0931403A1E0A1DFA12FBCDFA1E0A2DF47
:1007BA0009C01A931A2F103019F0A8E096DF02C068
:1007CA00A8E098DF1991089583D30093120306D401
:1007DA00E0911203EA93E8E077D310931603E12F2E
:1007EA00E058E0931003E12FE054E0931103A4E1F1
:1007FA00B0E044D476D375D374D3A0E282DF88EC18
:10080A0090E00197F1F7A8E28DDFA4E08BDFA5E87D
:10081A0089DFA6E087DFA1DF09C05AD3E4D3E02F3E
:10082A00EE0FAE2F13D4A12F11D4ECD31981088166
:10083A0023960895BA93AA93269777D310E0AC85A6
:10084A00BD85E0E0F0E0ED93FC93EA89FB893196FF
:10085A00EA8BFB8B3197E4912E2FE03009F40BC120
:10086A00E12FE03031F4253211F411E001C040D318
:10087A0001C1E130A1F4253211F43AD3FAC012E0F1
:10088A0040E000E02D3211F401E0F4C02B3211F403
:10089A004BE2F0C0203211F440E2ECC002C0E23078
:1008AA0039F450E013E0203311F40068E3C003C0C8
:1008BA00E33009F0DFC0203310F02A3308F007C014
:1008CA00AAE05A9F502DE22FE0535E0FD3C0E22FC9
:1008DA00E33639F414D3E889F989A481AA9315D3A4
:1008EA00C8C0E33729F40BD316D308D11E2F07C08B
:1008FA00E03749F404D30FD30DD11E2F08600260EC
:10090A000F7730E03AC0E43611F0E93611F40460AA
:10091A0002C0E53731F4E8E6F0E0EE83FF8315E044
:10092A000CC0E83511F4086003C0E83709F0A1C02B
:10093A00E2E7F0E0EE83FF8314E002FF15C0DFD2A6
:10094A00A889B9891496ED91FD91EA87FB87AB8551
:10095A00AA2322F4F8D2EA87FB874DE2403011F04D
:10096A001F5F01C00B7F09C0CAD2A889B989149632
:10097A00ED91FC911197EA87FB8700FD10C01517CE
:10098A0070F407FF08C002FF04C00B7F242F115028
:10099A0001C020E301C020E2ABD25150F0CF312F89
:1009AA0001FF16C0303099F003FF06C0EE81FF81C7
:1009BA002591EE83FF8305C0AE81BF812D91AE8361
:1009CA00BF8396D2503009F051503150EBCF48C016
:1009DA0020E3EE81FF81F9D2E887F987EE81FF8172
:1009EA003296EE83FF83E885F985AA85BB85AE1723
:1009FA00BF0750F02F5FA885B985EA85FB85EA1BFA
:100A0A00FB0BEA87FB87EFCF2A3328F003FF02C0EC
:100A1A00295F01C0295D04FD19C0213320F4A8858E
:100A2A00B985119709F409C0531710F000FF01C0E6
:100A3A0011C020E207FF0AC020E3006102FF06C0DE
:100A4A000B7F4A9362D2503009F0515051D2503044
:100A5A0009F051503150A885B985129708F0B8CFDE
:100A6A0000FF07C0503029F05150E0E2EA934DD21E
:100A7A00F9CF10E0EACEAC85BD85ED91FD915CD24F
:100A8A006496089554D28D013C81A32F72DED80159
:100A9A00ED91FD913196FE93EE9350D225960895ED
:100AAA00FF92F82E269743D2FE010024EF0DF01D87
:100ABA0034852585DE0116960024AF0DB01D8D0103
:100ACA00E0E0EE83EF83E887E9872A93A32F37DEF6
:100ADA00DE011A960024AF0DB01DED91FD91FA9337
:100AEA00EA931A930A93E7E4F5E0FA93EA93DE01AC
:100AFA001A96A0DE23D22A96FF900895BA93AA9353
:100B0A00A991B991EE27FF276D91662311F03196CD
:100B1A00FBCF0895BA93AA93AA27BB27E991F99123
:100B2A000590002011F01196FBCFFD010895299A36
:100B3A008BE08A95F1F708952A988BE08A95F1F768
:100B4A00089529988BE08A95F1F7089529988DE000
:100B5A008A95F1F708951DDBA0EDB0E04CCBA1E03A
:100B6A00B0E082DBDF0127CBE0930003F0930103BF
:100B7A000895E0930203F09303030895E0930403B6
:100B8A00F09305030895E0910403F0910503089595
:100B9A00CCD18D012E813F8148855985DCCFB0E0CB
:100BAA002ADBDA0117DBDF0126DBFBDAD4CFB0E080
:100BBA0022DBD9010FDBDF011EDBF3DACCCFB0E099
:100BCA001ADBD80107DBDF0116DBEBDAB5D10895B2
:100BDA00EFE0F0E0E315F405089550D2EAE0F0E022
:100BEA00E0930A03F0930B030895E2E0F0E0E315C3
:100BFA00F4050895E3E0F0E0E315F4050895E1E073
:100C0A00F0E0E515F6050895CA92BA92AA929A9268
:100C1A00A72DB82D71CBE4E0F0E0E315F4050895B3
:100C2A00E5E0F0E0E315F4050895E6E0F0E0E31509
:100C3A00F4050895E7E0F0E0E315F4050895E0917E
:100C4A000003F09101030895A0910203B0910303F8
:100C5A0012970895A0910403B0910503E4E0F0E02F
:100C6A00A6D130970895A0910003B0910103089589
:100C7A00EA92DA92E4DFFA93EA93E0910203F091BE
:100C8A000303FA93EA93A0910403B09105033DCBC1
:100C9A00E8E0F0E0E315F4050895E9E0F0E0E31593
:100CAA00F4050895E0910203F09103030895EAE040
:100CBA00F0E0E315F4050895EBE0F0E0E315F40540
:100CCA000895E0910603F09107030895E0E0E093A8
:100CDA000603E09307030895ECE0F0E0E315F4055A
:100CEA000895EDE0F0E0E315F4050895E0910803B6
:100CFA00F09109030895E0E0E0930803E093090303
:100D0A000895EEE0F0E0E315F4050895E0910C0390
:100D1A00F0910D030895A0910C03B0910D0308956D
:100D2A000A921A92FA926A937A938A939A93AA9354
:100D3A00BA93EA93FA93EFB7EA930895E0E0EA9355
:100D4A00EA93EEE7F0E0FA93EA9380E0A9DE2496CC
:100D5A000895E0E0EA93E1E0EA930895E7E8F0E035
:100D6A00FA93EA93E72DF82D6F2F660F660B762F0D
:100D7A0030D184E095DE28960895ACE2B1E07ED1C8
:100D8A00E8CFEAE8F0E0FA93EA9380E089DE249675
:100D9A00F4CFE3DCE0E0EA93EA930895E5E9F0E0D2
:100DAA00FA93EA9380E07CDE24960895A4E6B0E004
:100DBA0065D1E0E0EA93EA930895E7E8F0E0FA9370
:100DCA00EA93E92DFA2D6F2F660F660B762F01D164
:100DDA0084E066DE28960895E0EAF0E0FA93EA9362
:100DEA0080E05EDE24960895E7E8F0E0FA93EA935D
:100DFA0026DF6F2F660F660B762FEBD084E050DE6E
:100E0A0028960895E9EAF0E0FA93EA9380E048DE4A
:100E1A0024960895E7E8F0E0FA93EA9343DF6F2F08
:100E2A00660F660B762FD5D084E03ADE28960895B1
:100E3A00E3EBF0E0FA93EA9380E032DE2496089539
:100E4A00E7E8F0E0FA93EA933CDF6F2F660F660B50
:100E5A00762FBFD084E024DE28960895EEEBF0E0EA
:100E6A00FA93EA9380E01CDE24960895E7E8F0E01E
:100E7A00FA93EA933BDF6F2F660F660B762FA9D0A2
:100E8A0084E00EDE28960895EBECF0E0FA93EA93FC
:100E9A0080E006DE24960895FA93EA9380E000DE65
:100EAA0024966BCF6F2F660F660B762F92D008951C
:100EBA001A931A2FE0911203EA93E12F0895EA2B6D
:100ECA00E0931303AE2FA9CCE0931303AE2FA5CC66
:100EDA001A930A931A2F0A81089524DCA3E0B0E03A
:100EEA00CDC0A0E30EDC88EC90E00197F1F70895FD
:100EFA002A93AD85BE85EF85F88909950895E88915
:100F0A00F9893497E88BF98B0895AD85BE85EF850D
:100F1A00F88909950895A889B9891496ED91FD91E2
:100F2A00EE83FF83AE81BF8108955A934A933A9321
:100F3A002A931A930A9308955D814C813B812A81F1
:100F4A00198108810895F195E195F0400895EE0F11
:100F5A00FF1FEE0FFF1FEE0FFF1FEE0FFF1F08957B
:100F6A00F695E795F695E795F695E795F695E7955B
:100F7A000895FA9FF02DEB9FF00DEA9FE02DF10DF9
:100F8A0008950024112490E1AA0FBB1F001C111C14
:100F9A000E1A1F0A18F40E0E1F1E01C0A1609A95A0
:100FAA0099F7FD01D0010895ECDFFD010895E89459
:100FBA00B7FF04C0B195A195B0406894F7FDC3DFAF
:100FCA00E0DFFD010EF4BFDF08950590F491E02DF6
:100FDA0008957A936A93FA93EA9308954598449800
:100FEA003D9A3C9815C03C983D98EE270000349BEA
:100FFA000895359B089504D03C9A02D03D9AE1E0C9
:10100A0065E007C03C9A3D9A03D03D98F9DF3C98C9
:10101A006AE06A95F1F7089578E03D98F1DF359B2B
:10102A00FECFEEDF8894349908943D9AF1DFEE1FE3
:10103A007A9599F7AA2311F43C9801C03C9AE0DF0B
:10104A003D98E6DF3D9ADCDF3C98DACF78E0AA0FDC
:10105A0010F43C9801C03C9ADBDF3D98D1DF359B08
:10106A00FECFCEDF3D9A7A9591F73C98C9DF3D983D
:10107A00CFDFE1E03499EE273D9AC2CF109639F0DE
:10108A00A89580ED97E00197F1F71197C9F70895B0
:00000001FF
