:0A0000000C9434000C9400000C94E2
:10000A0000000C9400000C9400000C9400000C9466
:10001A0000000C9400000C9400000C9400000C9456
:10002A0000000C9400000C9400000C9451000C94F5
:10003A0000000C9400000C9400000C9400000C9436
:10004A0000000C9400000C9400000C9400000C9426
:10005A0000000C9400000C9400000C940000F8942A
:10006A00EE27EFBBF1E0F5BFE5BF8DE0A2E0BB27CD
:10007A00ED938A95E9F780E098E0A0E0B1E0ED938E
:10008A000197E9F7E0E0EEBBEFEFEDBFE8E0EEBF86
:10009A00C0E0D3E00C945A00EA932D9B02C02D983D
:1000AA0001C02D9A16D0E9911895E0E8E093610015
:1000BA00E0E0E0936100259A2D98E0938000E5E066
:1000CA00E093810006D0E1E0E0936F007894FFCFDF
:1000DA00FFCFEEE7E0938500E6EEE0938400089513
:00000001FF
