:0C0000000C9439000C9400000C940000DB
:10000C000C9400000C9400000C9400000C94000064
:10001C000C9400000C9400000C9400000C94000054
:10002C000C9400000C9400000C9485000C940000BF
:10003C000C9400000C9400000C9400000C94000034
:10004C000C9400000C9400000C9400000C94000024
:10005C000C9400000C9400000C94000001000100B2
:10006C00040068000000F894EE27EFBBF1E0F5BF48
:10007C00E5BF8DE0A2E0BB27ED938A95E9F780E020
:10008C0098E0A0E0B1E0ED930197E9F7EAE6F0E043
:10009C0085919591009761F0A591B591059015907A
:1000AC00BF01F00105900D920197E1F7FB01F0CF34
:1000BC00E0E0EEBBEFEFEDBFE8E0EEBFC0E0D3E079
:1000CC000C94AE005BD0AD0188279927E0E0F4E2F8
:1000DC0064EF70E061D0DF01CB01E0E0F8E060E0BC
:1000EC0070E07AD09F01E0E0F0E0E21BF30B8F01AF
:1000FC00009384001093850048D0269608950A92A8
:10010C001A92FA926A937A938A939A93AA93BA93CD
:10011C00EA93FA93EFB7EA93442031F02D98A2E0DA
:10012C00B0E0D0DF442406C02D9AA4E0B0E0CADFD2
:10013C00E1E04E2EE991EFBFF991E991B991A991C6
:10014C009991899179916991F990199009901895E3
:10015C00E0E8E0936100E0E0E0936100259A2D98DF
:10016C00E0938000E5E0E0938100A1E0B0E0AADF3D
:10017C00E1E0E0936F007894FFCFFFCF5A934A935E
:10018C003A932A931A930A9308955D814C813B818B
:10019C002A811981088108957A9F702D6B9F700DAB
:1001AC00F89F700DE99F700D6A9F602D710DFB9F7C
:1001BC00600D711DE89F600D711D8827FA9FF02D51
:1001CC00610D781FEB9FF00D611D781FEA9FE02DEC
:1001DC00F10D681F781F08953F934F935F93002490
:1001EC001124A00130E2AA0FBB1F881F991F001C0D
:1001FC00111C441F551F0E1A1F0A460B570B28F4CF
:10020C000E0E1F1E461F571F01C0A1603A9559F7CD
:10021C00FD01BC01D001CA015F914F913F9108953E
:00000001FF
