:020000000C945E
:1000020034000C9400000C9400000C9400000C943A
:1000120000000C9400000C9400000C9400000C945E
:1000220000000C9400000C9400000C9480000C94CE
:1000320000000C9400000C9400000C9400000C943E
:1000420000000C9400000C9400000C9400000C942E
:1000520000000C9400000C9400000C9400000C941E
:1000620000000C940000F894EE27EFBBF1E0F5BF1E
:10007200E5BF8DE0A2E0BB27ED938A95E9F780E02A
:1000820098E0A0E0B1E0ED930197E9F7E0E0EEBB84
:10009200EFEFEDBFE8E0EEBFC0E0D3E00C94A300C9
:1000A20057D0AD01E0E8E0936100E0E0E093610049
:1000B200E0938000E5E0E0938100A2E0A49FF001DC
:1000C200A59FF00D63D0FE2FE0E066277727A0E022
:1000D200B4E284EF90E083D09F01E0E0F0E0E21B25
:1000E200F30B8F010093840010938500E0916F0061
:1000F200E260E0936F00789432D0269608950A92D7
:100102001A92FA926A937A938A939A93AA93BA93D7
:10011200EA93FA93EFB7EA932D9B02C02D9801C0A0
:100122002D9AA2E0B0E0BCDFE991EFBFF991E9912D
:10013200B991A9919991899179916991F9901990BF
:1001420009901895259AA2E0B0E0AADFFFCFFFCF71
:100152005A934A933A932A931A930A9308955D8184
:100162004C813B812A81198108810895F09560951F
:100172007095E195FF4F6F4F7F4F0895B095809531
:100182009095A195BF4F8F4F9F4F0895EE0FFF1F80
:10019200EE0FFF1F08953F934F935F9300241124A6
:1001A200A00130E2AA0FBB1F881F991F001C111C5F
:1001B200441F551F0E1A1F0A460B570B28F40E0E2A
:1001C2001F1E461F571F01C0A1603A9559F7FD0136
:1001D200BC01D001CA015F914F913F91089504D0B3
:1001E200DADF0EF4C3DF0895E89477FF02C0BEDFC2
:1001F200689497FF04C0C2DF00F8039400FA0895E0
:00000001FF
