:080000000C944F000C94000069
:100008000C9400000C9400000C9400000C94000068
:100018000C9400000C9400000C9400000C94000058
:100028000C9400000C9400000C9400000C94000048
:100038000C9400000C9400000C9400000C94000038
:100048000C9400000C9400000C9400000C94000028
:100058000C9400000C9400000C9400000C94000018
:1000680021C00613200C000000000000005F000003
:100078000007000748656C6C6F20576F726C64212D
:10008800000006000D0368000E0013036E000D004B
:1000980000037C000000F894EE27EFBBF1E0F5BF09
:1000A800E5BF8DE0A2E0BB27ED938A95E9F780E0F4
:1000B80098E0A0E0B1E0ED930197E9F7EAE8F0E015
:1000C80085919591009761F0A591B591059015904E
:1000D800BF01F00105900D920197E1F7FB01F0CF08
:1000E800E0E0EEBBEFEFEDBFE8E0EEBFC0E0D3E04D
:1000F8000C94D9001A931A2F5C9A5D981EBDEDB521
:10010800E078E9F308C01A931A2F5C985D981EBD31
:10011800EDB5E078E9F35D9A199108951A930A9379
:1001280000E010E0083FE1E01E072CF4A0E0E2DF69
:100138000F5F1F4FF7CF26C05FD03A2F305200E035
:1001480010E00530E0E01E0764F4E5E0E39FF0010D
:10015800E00FF11FED5EFC4FA081CCDF0F5F1F4F5A
:10016800F0CFA0E0C7DF4DD0249608951A930A93E4
:100178008D01D801EC91E03029F0AC91DDDF0F5F03
:100188001F4FF7CF0991199108951A930A931A2FBF
:100198000A81E02FE068AE2FB6DFE12FE064AE2FD2
:1001A800B2DF1981088123960895E1E5ECBDEAB133
:1001B800EC67EAB95E9AAAE0B0E028D05E98AAE0B7
:1001C800B0E024D05E9A00E010E00630E0E01E07C0
:1001D8004CF4ADE0B3E0A00FB11FAC9194DF0F5F1A
:1001E8001F4FF3CF9BDFE0E0EA93A0E0CEDFA0E073
:1001F800B3E0BCDFFFCFFFCF3A932A931A930A9359
:1002080008953B812A81198108810895109639F053
:10021800A89580ED97E00197F1F71197C9F7089530
:00000001FF
