:0C0000000C945D000C9400000C940000B7
:10000C000C9400000C9400000C9400000C94000064
:10001C000C9400000C9400000C9400000C94000054
:10002C000C9400000C9400000C9400000C94000044
:10003C000C9400000C9400000C9400000C94000034
:10004C000C9400000C9400000C9400000C94000024
:10005C000C9400000C9400000C94000054696D6525
:10006C003A20003A005468753A00204E6761793A9C
:10007C00002F000A000007000003680002000703BD
:10008C006F00020009036F0002000B036D000500F6
:10009C000D037100070012037600020019037D00A6
:1000AC0002001B037D0002001D037F000000F8947A
:1000BC00EE27EFBBF1E0F5BFE5BF8DE0A2E0BB277B
:1000CC00ED938A95E9F780E098E0A0E0B1E0ED933C
:1000DC000197E9F7E2E8F0E085919591009761F0DE
:1000EC00A591B59105901590BF01F00105900D9269
:1000FC000197E1F7FB01F0CFE0E0EEBBEFEFEDBFD6
:10010C00E8E0EEBFC0E0D3E00C94D1011A931A2FB3
:10011C00E091C000E072E1F31093C60061C01A9345
:10012C000A938D01D801EC91E03059F0AC91EEDFDF
:10013C00D801AC91AA3011F4ADE0E8DF0F5F1F4F8E
:10014C00F1CF82C0BA93AA932897CDD100E010E0EA
:10015C004E855F85F801DE011696EA0FFB1FBF0185
:10016C00DA01EAE0F0E006D2E05DDB01EC93DA01C3
:10017C00EAE0F0E0F7D1AF010F5F1F4F042E052A24
:10018C0049F798010024021603065CF4F901319733
:10019C00DE011696AE0FBF1FAC91B8DF2150304078
:1001AC00F1CFA8D160960895E0E0E093C500E7E6B2
:1001BC00E093C400E6E0E093C200E8E9E093C100FC
:1001CC0078940895E8B1E063E8B9E7B1E063E7B982
:1001DC0008951A931A2F103011F03C9A01C03C98D4
:1001EC001991089539D145980EC0449A8BE08A959F
:1001FC00F1F732D136D13AD1089533D1459A8DE009
:10020C008A95F1F7449A8DE08A95F1F708951A933F
:10021C000A938D01F80182D1AAE0B0E088D1DF0108
:10022C00F801EF70F070EA0FFB1F0EC01A930A93DF
:10023C008D01EAE0F0E083D168D1BF01D801EAE09A
:10024C00F0E095D1E60FF71F099119910895BA9333
:10025C00AA9349D120E030E000E010E00830E0E063
:10026C001E07A0F4EE81FF81E078F0709F014498A6
:10027C00022E032A09F0449AB5DFEE81FF81EE0FBE
:10028C00FF1FEE83FF830F5F1F4FE8CFA0E0A1DFBE
:10029C00459A85E08A95F1F7E6B1E0714E2F552726
:1002AC00EAD0A1E096DFFA0125D1289608958ADFDD
:1002BC00E7D0A7E0B0E0CBDFA0E0B0E0C8DF4DC0F6
:1002CC0012D1AD0120E030E0A0E083DFCFD000E020
:1002DC0010E00830E0E01E0748F4459A220F331F67
:1002EC0034992160C8D00F5F1F4FF3CFA1E071DFAD
:1002FC00042E052A11F0449801C0449AADD0B6D012
:10030C00F901F8D026960895BBD0A0E0B0E09FDFAD
:10031C006CDFA1EDB0E09BDFB7D09E2EAF2EB4D03A
:10032C007E2E8F2EB1D05E2E6F2EAED0BE2ECF2E47
:10033C00ABD0DE2EEF2EA8D0E0931F03F09320035A
:10034C00A0E0B0E0BDDFDF0162DFA3D0E0912103CC
:10035C00F0912203E053F84F9CD04FDF08959ED0CC
:10036C00A0E0A3D0A1E0A9D0A2E0AFD02A96089536
:10037C0095D0A3E0B0E06BDFAA85BB8557DFDF012A
:10038C0066DF3BDF7DD0A4E090D0A5E096D0A6E060
:10039C009CD02C96089508DF8ADFE2E3F0E0FA9314
:1003AC00EA93EBE3F0E09AD0DADFE3E0F0E0FA93E3
:1003BC00EA93EEE1F0E0FA93EA93E5E0F0E08ED018
:1003CC00D7DFA2DFA0E0B3E0AADEA52DB62DBADE02
:1003DC00A7E0B3E0A4DEA72DB82DB4DEA9E0B3E00E
:1003EC009EDEA92DBA2DAEDEABE0B3E098DEADE01B
:1003FC00B3E095DEAB2DBC2DA5DEA2E1B3E08FDE24
:10040C00AD2DBE2D9FDEA9E1B3E089DEA0911F03C7
:10041C00B091200397DEABE1B3E081DEA091210324
:10042C00B09122038FDEADE1B3E079DEA8EEB3E04C
:10043C00BDD000240514060421F40024071408047C
:10044C0009F008C0299AA4EFB1E0B0D02998A4EF24
:10045C00B1E0ACD0B6CFFFCF459A8BE08A95F1F7DF
:10046C00089544988BE08A95F1F7089545988BE0B0
:10047C008A95F1F7089545988DE08A95F1F70895DE
:10048C00B4DEA0EDB0E0E3CEA1E0B0E019DFDF0117
:10049C00BECEE0932103F0932203089524D08D0166
:1004AC002E813F8148855985EBCFB0E0D0DEDA0153
:1004BC00BDDEDF01CCDEA1DEE3CFB0E0C8DED901CA
:1004CC00B5DEDF01C4DE99DEDBCFB0E0C0DED801E3
:1004DC00ADDEDF01BCDE91DE0DD00895FA93EA9318
:1004EC00A7E1B0E008955A934A933A932A931A934A
:1004FC000A9308955D814C813B812A811981088181
:10050C000895F195E195F0400895EE0FFF1FEE0F61
:10051C00FF1FEE0FFF1FEE0FFF1F0895F695E795D7
:10052C00F695E795F695E795F695E7950895FA9F74
:10053C00F02DEB9FF00DEA9FE02DF10D08950024B6
:10054C00112490E1AA0FBB1F001C111C0E1A1F0ACC
:10055C0018F40E0E1F1E01C0A1609A9599F7FD01AB
:10056C00D001089515D0EBDF0EF4CBDF0895E7DF53
:10057C00FD010895E894B7FF04C0B195A195B04072
:10058C006894F7FDBEDFDBDFFD010EF4BADF0895E2
:10059C00E894F7FF02C0B5DF6894B7FF06C0B195C9
:1005AC00A195B04000F8039400FA0895109639F024
:1005BC00A89580ED97E00197F1F71197C9F7089589
:00000001FF
