:0A0000000C94DF000C9400000C9437
:10000A0000000C9400000C9400000C9400000C9466
:10001A0000000C9400000C9400000C9400000C9456
:10002A0000000C9400000C9400000C9400000C9446
:10003A0000000C9400000C9400000C9400000C9436
:10004A0032020C9400000C9400000C9400000C94F2
:10005A0000000C9400000C9454020C940000000060
:10006A0000000000000000000102030453746172E2
:10007A00742073656E742E2E2E0A00537461747583
:10008A007320436F64653A2000534C41202B207241
:10009A00772073656E74202E2E2E0A0042797465BD
:1000AA002073656E742E2E2E0A004F776E206164BF
:1000BA006472657373206D61746368202B20572006
:1000CA000A00526563656976652061206279746504
:1000DA002C2073656E742041434B200A00526563DD
:1000EA0065697665206120627974652C2073656E76
:1000FA0074204E41434B200A005265636569766558
:10010A002053746F7020636F6E646974696F6E2018
:10011A000A004461746120726563656976656420CA
:10012A0066726F6D2055415254203A200044617422
:10013A00612072656365697665642066726F6D20F9
:10014A005457493A20000A00050068000F000003CE
:10015A0076000E000F03850002001D0383001300C2
:10016A001F0393000E003203850002004003830040
:10017A000E004203A6000E005003850002005E0333
:10018A00830018006003B4001B007803CC001C0035
:10019A009303E7001900AF0303011B00C8031C0106
:1001AA000200E30383001900E50337010200FE039E
:1001BA0083000000F894EE27EFBBF1E0F5BFE5BF3E
:1001CA008DE0A2E0BB27ED938A95E9F780E098E0FD
:1001DA00A0E0B1E0ED930197E9F7E0E5F1E0859160
:1001EA009591009761F0A591B59105901590BF0181
:1001FA00F00105900D920197E1F7FB01F0CFE0E0E5
:10020A00EEBBEFEFEDBFE8E0EEBFC0E0D3E00C9449
:10021A00E202BA93AA931A930A93EA81FB816627A8
:10022A00772725D2DF01CB01E0E1F0E060E070E062
:10023A00C8D231978F011093C5000093C400E6E03D
:10024A00E093C200E8E9E093C1007894198108813B
:10025A00249608951A931A2FE091C000E072E1F3F0
:10026A001093C600BCC01A930A938D01D801EC9171
:10027A00E03059F0AC91EEDFD801AC91AA3011F41C
:10028A00ADE0E8DF0F5F1F4FF1CF09911991089593
:10029A00BA93AA9328972FD200E010E04E855F8583
:1002AA00F801DE011696EA0FFB1FBF01DA01EAE048
:1002BA00F0E08CD2E05DDB01EC93DA01EAE0F0E0F9
:1002CA0057D2AF010F5F1F4F042E052A49F7980135
:1002DA000024021603065CF4F9013197DE01169632
:1002EA00AE0FBF1FAC91B6DF21503040F1CF0AD21A
:1002FA006096089502D21A2F0C813D81E32FEE0FEA
:10030A00E00FE093BA00E091B900EC7FE093B90006
:10031A00E12FF0E06F2F660F660B762FA8D1E05120
:10032A00F04060407040DF01CB01E2E0F0E060E0C5
:10033A0070E047D2E093B800E5E4E093BC0067C000
:10034A00E091BC00E16016C0E091BC00EE7F12C0F3
:10035A00E4EAE093BC00E091BC00E078E1F3A0E0BD
:10036A00B3E081DFAFE0B3E088D1ADE1B3E08DD196
:10037A000895E4E9E093BC0008951A930A931A2FAA
:10038A000A81E12FEF5FA02FD8D1E093BB00E4E808
:10039A00E093BC00E091BC00E078E1F3AFE1B3E0A8
:1003AA0062DFA2E3B3E069D1A0E4B3E06ED11981C0
:1003BA000881239608951A931A2F1093BB00E4E834
:1003CA00E093BC00E091BC00E078E1F3A2E4B3E082
:1003DA004ADFA0E5B3E051D1AEE5B3E056D11991B9
:1003EA0008958BD18D012C813D813324442430160C
:1003FA00410654F4E32DF42DE20FF31FA081DBDF55
:10040A00E83211F447D1F3CFE091B900E87F7CD10B
:10041A0026960895AEDF94DF08956DD18D012E8161
:10042A003F81588591DF94DFE83011F0E1E012C096
:10043A005A93A0E0A2DFE83111F0E1E00BC03A9351
:10044A002A93D801CEDFE83211F0E1E003C091DF50
:10045A0077DFE0E057D129960895AA93BA93EA93F1
:10046A00FA93EFB7EA93E1E0F0E07E2E8F2EE2E313
:10047A00F0E05E166F0664F4E52DF62D31965E2ED9
:10048A006F2E3197EC59FB4FDF01E091C600EC93D8
:10049A00E991EFBFF991E991B991A99118950A9259
:1004AA001A92FA926A937A938A939A93AA93BA932C
:1004BA00EA93FA93EFB7EA93E091B900E0939604CE
:1004CA00F0E0E036A0E0FA0731F4A0E6B3E0CBDED4
:1004DA009924AA245FC0E038A0E0FA0749F4A8E703
:1004EA00B3E0C1DEDCD014F4DFD054C0EAD055C08A
:1004FA00E838A0E0FA0709F44DC0E037A0E0FA07AF
:10050A0019F49924AA2446C0E039A0E0FA0731F484
:10051A00C6D014F4C9D03EC0D4D03FC0E839A0E058
:10052A00FA0721F4A3E9B3E09EDE34C0E03AA0E082
:10053A00FA0741F4AFEAB3E096DEE1E0F0E0DE2E3E
:10054A00EF2E28C0E83AA0E0FA0711F4C3D022C07F
:10055A00E83BA0E0FA0781F4E1E3F0E0BE16CF063B
:10056A0014F4B8D017C0A2E3B4E0AB0DBC1DEC91F3
:10057A00E093BB00E5E811C0E03BA0E0FA0711F404
:10058A00A9D008C0E03CA0E0FA0721F0E83CA0E0CE
:10059A00FA0729F4E091BC00E06CE093BC00E99111
:1005AA00EFBFF991E991B991A991999189917991BD
:1005BA006991F990199009901895A0E8B5E229DE99
:1005CA00E2E0EA93E1E0EA93A0EA94DE072C082845
:1005DA0061F1A8ECB3E047DEA4E6B4E044DEA3EEA2
:1005EA00B3E041DE332444243514460474F4E32D85
:1005FA00F42DEE5CFB4F0F0179D0EC91D001EC9316
:10060A0075D0E0E0EC9346D0EFCFE1E0EA93E2E385
:10061A00F4E0FA93EA93A52DB62DFFDEE03009F057
:10062A00F9DE5524662477248824A8EEB3E0F6D0B0
:10063A000D2C0E28D1F0A5EEB3E015DEA0E0B4E053
:10064A0012DEAEEFB3E00FDE3324442439144A0439
:10065A0044F4A2E3B4E0A30DB41DE0E0EC931AD095
:10066A00F5CF9924AA24DD24EE24B0CFFFCFA0E051
:10067A00B4E284EF90E0A5D00895F5DDE091B900E9
:10068A00F0E0E87FF070DF0103CEEDDDE091B90024
:10069A00E87F0895E1E0F0E03E0E4F1E0895E1E3A1
:1006AA00F0E09E16AF060895E92DFA2D31969E2E9A
:1006BA00AF2E3197E050FC4FDF01E091BB00EC9385
:1006CA000895A92DBA2DA050BC4FE091BB00EC9320
:1006DA00E5E80895EB2DFC2D3196BE2ECF2E3197ED
:1006EA00EE5CFB4FE081E093BB000895A4E6B4E022
:1006FA00A30DB41D08955A934A933A932A931A93D1
:10070A000A9308955D814C813B812A811981088170
:10071A000895F195E195F0400895F09560957095EA
:10072A00E195FF4F6F4F7F4F0895B0958095909553
:10073A00A195BF4F8F4F9F4F0895EE230E2EEA2F9C
:10074A0019F0EE0F0A94E9F708950024112490E1B4
:10075A00AA0FBB1F001C111C0E1A1F0A18F40E0E3A
:10076A001F1E01C0A1609A9599F7FD01D001089555
:10077A003BD0EBDF0EF4CDDF08953F934F935F93A9
:10078A0000241124A00130E2AA0FBB1F881F991F61
:10079A00001C111C441F551F0E1A1F0A460B570B2B
:1007AA0028F40E0E1F1E461F571F01C0A1603A955E
:1007BA0059F7FD01BC01D001CA015F914F913F91E8
:1007CA00089520D0DADF0EF4A8DF0895E894B7FF81
:1007DA0004C0B195A195B0406894F7FD9ADFB5DFE2
:1007EA00FD010EF496DF0895E894F7FF02C091DF49
:1007FA006894B7FF06C0B195A195B04000F803947C
:10080A0000FA0895E89477FF02C087DF689497FF9B
:10081A0004C08BDF00F8039400FA0895109639F0AB
:10082A00A89580ED97E00197F1F71197C9F7089518
:00000001FF
