:0E0000000C9434000C9400000C9400000C943E
:10000E0000000C9400000C9400000C9400000C9462
:10001E0000000C9400000C9400000C9400000C9452
:10002E0000000C9400000C9400000C9400000C9442
:10003E0000000C9400000C9400000C9400000C9432
:10004E0000000C9400000C9400000C9400000C9422
:10005E0000000C9400000C940000F894EE27EFBB07
:10006E00F1E0F5BFE5BF8DE0A2E0BB27ED938A95E9
:10007E00E9F780E098E0A0E0B1E0ED930197E9F7B1
:10008E00E0E0EEBBEFEFEDBFE8E0EEBFC0E0D3E0A7
:10009E000C945100EFEFEAB9E0E0EBB92098289A02
:1000AE00E3B1E170E3B9E03079F12697E1E0E8835E
:1000BE00E0E0E983E8E0EA83E0E0EB83EC83ED83C4
:1000CE00EC83ED83EA81FB81AC81BD81AE17BF0766
:1000DE00BCF4EBB1A881EA2BEBB9E881F981EE0F04
:1000EE00FF1FA881B981EA2BFB2BE883F983A8EEC9
:1000FE00B3E00CD0EC81FD813196EC83FD83E2CF31
:10010E00EBB1E070EBB92696CBCFFFCF109639F05E
:10011E00A89580ED97E00197F1F71197C9F708952B
:00000001FF
