:100000000C9442000C9400000C9400000C9400002E
:100010000C9400000C9400000C9400000C94000060
:100020000C9400000C9400000C9400000C94000050
:100030000C9400000C94BC000C9400000C94000084
:100040000C9400000C9400000C9400000C94000030
:100050000C9400000C9400000C9400000C94000020
:100060000C9400000C9400001027E80364000A00C0
:100070000100001000011000010000000200030058
:100080007A000000F894EE27EFBBF1E0F5BFE5BF82
:100090008DE0A2E0BB27ED938A95E9F780E098E038
:1000A000A0E0B1E0ED930197E9F7ECE7F0E085918E
:1000B0009591009761F0A591B59105901590BF01BC
:1000C000F00105900D920197E1F7FB01F0CFE0E020
:1000D000EEBBEFEFEDBFE8E0EEBFC0E0D3E00C9485
:1000E000E800E0E0E093C500E7E6E093C400E6E066
:1000F000E093C200E8E9E093C10008951A931A2F33
:10010000E091C000E072E1F31093C60019910895E8
:10011000BA93AA9328977ED000E010E04E855F85C1
:10012000F801DE011696EA0FFB1FBF01DA01EAE0D3
:10013000F0E09AD0E05DDB01EC93DA01EAE0F0E078
:100140008ED0AF010F5F1F4F042E052A49F798018B
:100150000024021603065CF4F9013197DE011696BD
:10016000AE0FBF1FAC91CADF21503040F1CFADE0E0
:10017000C5DF57D0609608950A921A92FA926A9350
:100180007A938A939A93AA93BA93EA93FA93EFB7DE
:10019000EA93E0910003E03041F4E6B5F0E0DF01DE
:1001A000B7DF2D9A30D0E1E003C02D982CD0E0E0ED
:1001B000E0930003E991EFBFF991E991B991A99119
:1001C0009991899179916991F9901990099018956F
:1001D00088DFE0E8E0936100E0E0E0936100259AC9
:1001E0002D98E0938000E5E0E09381000CD0E0E002
:1001F000E4BDE5E0E5BDE4EFE6BDE1E0E0936F00DE
:100200007894FFCFFFCFE1EEE0938500EBE7E0933A
:10021000840008955A934A933A932A931A930A931F
:1002200008955D814C813B812A811981088108955F
:10023000F195E195F04008950024112490E1AA0F72
:10024000BB1F001C111C0E1A1F0A18F40E0E1F1ED5
:1002500001C0A1609A9599F7FD01D001089512D0CF
:10026000EBDF0EF4E5DF0895E894B7FF04C0B19525
:10027000A195B0406894F7FDDBDFDEDFFD010EF4F1
:10028000D7DF0895E894F7FF02C0D2DF6894B7FF84
:1002900006C0B195A195B04000F8039400FA089506
:00000001FF
