:020000000C945E
:1000020039000C9400000C9400000C9400000C9435
:1000120000000C9400000C9400000C9400000C945E
:1000220000000C9400000C9400000C9400000C944E
:1000320000000C9400000C9400000C9400000C943E
:1000420000000C9400000C94C7000C9400000C9467
:1000520000000C9400000C9400000C9400000C941E
:1000620000000C9400000D00020000036800000074
:10007200F894EE27EFBBF1E0F5BFE5BF8DE0A2E01B
:10008200BB27ED938A95E9F780E098E0A0E0B1E024
:10009200ED930197E9F7EAE6F0E0859195910097F3
:1000A20061F0A591B59105901590BF01F001059001
:1000B2000D920197E1F7FB01F0CFE0E0EEBBEFEF2D
:1000C200EDBFE8E0EEBFC0E0D3E00C94E8001A9385
:1000D2001A2FE091C000E072E1F31093C60019916B
:1000E20008951A930A938D01D801EC91E03059F0EA
:1000F200AC91EDDFD801AC91AA3011F4ADE0E7DFAD
:100102000F5F1F4FF1CF099119910895BA93AA93E6
:10011200289760D000E010E04E855F85F801DE018F
:100122001696EA0FFB1FBF01DA01EAE0F0E07CD08D
:10013200E05DDB01EC93DA01EAE0F0E070D0AF01C0
:100142000F5F1F4F042E052A49F79801002402165B
:1001520003065CF4F9013197DE011696AE0FBF1F5C
:10016200AC91B5DF21503040F1CF3BD0609608957D
:10017200E0E0E093C500E7E6E093C400E6E0E09348
:10018200C200E8E9E093C100789408950A921A92B5
:10019200FA926A937A938A939A93AA93BA93EA9376
:1001A200FA93EFB7EA93AFEFB0E0B0DFA0E0B3E0CD
:1001B20098DFE991EFBFF991E991B991A9919991EC
:1001C200899179916991F990199009901895D0DFE8
:1001D200FFCFFFCF5A934A933A932A931A930A93E3
:1001E20008955D814C813B812A811981088108959E
:1001F200F195E195F04008950024112490E1AA0FB1
:10020200BB1F001C111C0E1A1F0A18F40E0E1F1E13
:1002120001C0A1609A9599F7FD01D001089512D00D
:10022200EBDF0EF4E5DF0895E894B7FF04C0B19563
:10023200A195B0406894F7FDDBDFDEDFFD010EF42F
:10024200D7DF0895E894F7FF02C0D2DF6894B7FFC2
:1002520006C0B195A195B04000F8039400FA089544
:00000001FF
