:0A0000000C9434000C9400000C94E2
:10000A0000000C9400000C9400000C9400000C9466
:10001A0000000C9400000C9400000C9400000C9456
:10002A0000000C9400000C9400000C9451000C94F5
:10003A0000000C9400000C9400000C9400000C9436
:10004A0000000C9400000C9400000C9400000C9426
:10005A0000000C9400000C9400000C940000F8942A
:10006A00EE27EFBBF1E0F5BFE5BF8DE0A2E0BB27CD
:10007A00ED938A95E9F780E098E0A0E0B1E0ED938E
:10008A000197E9F7E0E0EEBBEFEFEDBFE8E0EEBF86
:10009A00C0E0D3E00C946100EA93EFB7EA932D9B9A
:1000AA0002C02D9801C02D9A2DD0E6B5E061EBB9BA
:1000BA00E991EFBFE9911895E0E8E0936100E0E08B
:1000CA00E0936100259A2D98EFEEEAB9EBB1E07F53
:1000DA00EBB9E0E0E0938000E5E0E093810012D024
:1000EA00E1E0E0936F00E0E0E4BDE5B5E760E5BD7F
:1000FA00E0E0E6BD7894E6B5EA3011F4E0E0E6BD6A
:10010A00FACFFFCFE9EDE0938500E09384000895EC
:00000001FF
