:0E0000000C9434000C9400000C9400000C943E
:10000E0000000C9400000C9400000C9400000C9462
:10001E0000000C9400000C9400000C9400000C9452
:10002E0000000C9400000C9400000C9400000C9442
:10003E0000000C9400000C9400000C9400000C9432
:10004E0000000C9400000C9400000C9400000C9422
:10005E0000000C9400000C940000F894EE27EFBB07
:10006E00F1E0F5BFE5BF8DE0A2E0BB27ED938A95E9
:10007E00E9F780E098E0A0E0B1E0ED930197E9F7B1
:10008E00E0E0EEBBEFEFEDBFE8E0EEBFC0E0D3E0A7
:10009E000C94840056D0AD01AE81BF81A40FB51F64
:1000AE00E0E1F0E098D043D0A0E4B2E48FE090E03D
:1000BE0097D0DF01CB01E885F985EE0FFF1F37D012
:1000CE00D0D031978F01EE81FF81D80184D0DF012E
:1000DE00EE81FF81E40FF51F9BD09F01F8012CD01C
:1000EE00E093870000938600F90126D0E093890003
:1000FE00209388002DD02A960895E0918000E26822
:10010E00E0938000E0918100ED61E0938100219AFF
:10011E00E2E0E5B9E0E0F4E0FA93EA93E1E0F0E042
:10012E00FA93EA93A2E0B0E0B5DFFFCFFFCF6F2FD7
:10013E00660F660B762F0895EF2FFF27E7FDFFEF73
:10014E0008955A934A933A932A931A930A930895C9
:10015E005D814C813B812A81198108810895F19539
:10016E00E195F0400895F09560957095E195FF4FFB
:10017E006F4F7F4F0895B09580959095A195BF4F85
:10018E008F4F9F4F0895FA9FF02DEB9FF00DEA9F32
:10019E00E02DF10D08957A9F702D6B9F700DF89FD5
:1001AE00700DE99F700D6A9F602D710DFB9F600DA4
:1001BE00711DE89F600D711D8827FA9FF02D610D4E
:1001CE00781FEB9FF00D611D781FEA9FE02DF10D5A
:1001DE00681F781F08954AD0D6DF0EF4C0DF089549
:1001EE0053D0D9DF0EF4BFDF08950024112490E11F
:1001FE00AA0FBB1F001C111C0E1A1F0A18F40E0E9C
:10020E001F1E01C0A1609A9599F7FD01D0010895B6
:10021E002DD0EBDF0EF4A3DF08953F934F935F9342
:10022E0000241124A00130E2AA0FBB1F881F991FC2
:10023E00001C111C441F551F0E1A1F0A460B570B8C
:10024E0028F40E0E1F1E461F571F01C0A1603A95BF
:10025E0059F7FD01BC01D001CA015F914F913F9149
:10026E00089512D0DADF0EF47EDF0895E894F7FFDA
:10027E0002C075DF6894B7FF06C0B195A195B04076
:10028E0000F8039400FA0895E89477FF02C06BDF3C
:10029E00689497FF04C06FDF00F8039400FA089586
:00000001FF
