:100000000C9455000C9400000C9400000C9400001B
:100010000C9400000C9400000C9400000C94000060
:100020000C9400000C9400000C9400000C94000050
:100030000C9400000C9400000C9400000C94000040
:100040000C9400000C9400000C9400000C94000030
:100050000C9400000C9400000C9400000C94000020
:100060000C9400000C9400001027E80364000A00C0
:100070000100001000011000010053797374656DD8
:1000800020416C61726D0D0A00416C61726D206FD0
:100090007665720D0A0001002D4E414E00494E4614
:1000A00000000100140396000000F894EE27EFBB57
:1000B000F1E0F5BFE5BF8DE0A2E0BB27ED938A95A7
:1000C000E9F780E098E0A0E0B1E0ED930197E9F76F
:1000D000E2EAF0E085919591009761F0A591B591E4
:1000E00005901590BF01F00105900D920197E1F781
:1000F000FB01F0CFE0E0EEBBEFEFEDBFE8E0EEBFDD
:10010000C0E0D3E00C9484006E9733D039D0569A77
:10011000E0917A00E064E0937A00E0917A00E07088
:10012000E1F73090780040907900E0E2F3E0E315E9
:10013000F40544F402D2EAE7F0E004D2A8E0B0E02B
:1001400044D00AC0E0E2F3E03E164F062CF4F5D1AD
:10015000E9E8F0E0F7D15E98A0E0B3E021D0E091CB
:100160007A00E061E0937A00A4E6B0E02FD2D0CF2D
:10017000FFCFE5E4E0937C00E7E8E0937A000895A0
:10018000E0E0E093C000E8E1E093C100E6E0E09346
:10019000C200E0E0E093C500E8E0E093C400089509
:1001A0001A930A938D01D801EC91E03059F0E09157
:1001B000C000E072E1F3D801EC91E093C6000F5F5C
:1001C0001F4FF1CF099119910895ECD19D0100E0E5
:1001D00010E0021713075CF45E9AADE7B0E0F6D1C9
:1001E0005E98ADE7B0E0F2D10F5F1F4FF2CFE1D1E3
:1001F00024960895D5D19D015E811296ED91FC91D2
:1002000011973097E9F0D901A3D18F01309759F0B8
:100210000230E0E01E0760F0F80131978F01D9014C
:100220001496ED93FC93D901129697D13197508390
:10023000D901ED91FC911197FF230AF08ED105C0F1
:10024000D901EFEFFFEFED93FC93B1D1279608951D
:10025000BA93AA932697A4D110E0AC85BD85E0E0BF
:10026000F0E0ED93FC93EA89FB893196EA8BFB8BF6
:100270003197E4912E2FE03009F408C1E12FE030EE
:1002800031F4253211F411E001C06DD1FEC0E1302E
:10029000A1F4253211F467D1F7C012E040E000E08C
:1002A0002D3211F401E0F1C02B3211F44BE2EDC01C
:1002B000203211F440E2E9C002C0E23039F450E0EB
:1002C00013E0203311F40068E0C003C0E33009F00C
:1002D000DCC0203310F02A3308F007C0AAE05A9F90
:1002E000502DE22FE0535E0FD0C0E22FE33639F4F9
:1002F00041D1E889F989A481AA9342D1C5C0E337E5
:1003000029F438D143D100D11E2F07C0E03749F47A
:1003100031D13CD105D11E2F086002600F7730E04B
:1003200037C0E43611F0E93611F4046002C0E53755
:1003300031F4E8E6F0E0EE83FF8315E00CC0E83529
:1003400011F4086003C0E83709F09EC0E2E7F0E06E
:10035000EE83FF8314E002FF15C00CD1A889B98990
:100360001496ED91FD91EA87FB87AB85AA2322F4D1
:1003700025D1EA87FB874DE2403011F01F5F01C0B5
:100380000B7F06C0F7D0A889B989E2D0EA87FB873E
:1003900000FD10C0151770F407FF08C002FF04C06D
:1003A0000B7F242F115001C020E301C020E2DBD0DD
:1003B0005150F0CF312F01FF16C0303099F003FFBC
:1003C00006C0EE81FF812591EE83FF8305C0AE81DB
:1003D000BF812D91AE83BF83C6D0503009F05150FC
:1003E0003150EBCF48C020E3EE81FF81EBD0E887AE
:1003F000F987EE81FF813296EE83FF83E885F985E8
:10040000AA85BB85AE17BF0750F02F5FA885B985B9
:10041000EA85FB85EA1BFB0BEA87FB87EFCF2A33D4
:1004200028F003FF02C0295F01C0295D04FD19C047
:10043000213320F4A885B985119709F409C0531711
:1004400010F000FF01C011C020E207FF0AC020E346
:10045000006102FF06C00B7F4A9392D0503009F032
:10046000515081D0503009F051503150A885B98594
:10047000129708F0B8CF00FF07C0503029F0515054
:10048000E0E2EA937DD0F9CF10E0EDCEAC85BD85FA
:10049000ED91FD918CD064960895FF92F82E2697E9
:1004A0007FD0FE010024EF0DF01D46855785042EF8
:1004B000052A19F4EFEFFFEF23C0DE0118960024A0
:1004C000AF0DB01D8D0148875987E0E0EA87EB87C3
:1004D000DE011C960024AF0DB01DED91FD91FA9345
:1004E000EA931A930A93EAEFF0E0FA93EA93DE01B3
:1004F0001C96AEDE9F01A885B985E0E0EC93F9017A
:1005000056D02C96FF900895BA93AA93A991B991C9
:10051000EE27FF276D91662311F03196FBCF0895EA
:10052000BA93AA93AA27BB27E991F99105900020D5
:1005300011F01196FBCFFD010895E0E0F3E0FA938E
:10054000EA930895FA93EA9380E0A7DF249608954A
:100550001496ED91FC9111970895ED91FD913196CE
:10056000FE93EE9308952A93AD85BE85EF85F889B5
:1005700009950895E889F9893497E88BF98B0895EE
:10058000AD85BE85EF85F88909950895A889B98953
:100590001496ED91FD91EE83FF83AE81BF810895A6
:1005A0005A934A933A932A931A930A9308955D8132
:1005B0004C813B812A81198108810895F195E1954B
:1005C000F04008950590F491E02D0895109639F0CB
:1005D000A89580ED97E00197F1F71197C9F7089575
:00000001FF
