:0E0000000C9434000C9400000C9400000C943E
:10000E0000000C9400000C9400000C9400000C9462
:10001E0000000C9400000C9400000C9400000C9452
:10002E0000000C9400000C948D000C9400000C94B5
:10003E0000000C9400000C9400000C9400000C9432
:10004E0000000C9400000C9400000C9400000C9422
:10005E0000000C9400000C940000F894EE27EFBB07
:10006E00F1E0F5BFE5BF8DE0A2E0BB27ED938A95E9
:10007E00E9F780E098E0A0E0B1E0ED930197E9F7B1
:10008E00E0E0EEBBEFEFEDBFE8E0EEBFC0E0D3E0A7
:10009E000C94B2001A931A2FE091C000E072E1F3B3
:1000AE001093C60019910895BA93AA9328978AD0EF
:1000BE0000E010E04E855F85F801DE011696EA0F2E
:1000CE00FB1FBF01DA01EAE0F0E0A6D0E05DDB0144
:1000DE00EC93DA01EAE0F0E09AD0AF010F5F1F4F28
:1000EE00042E052A49F798010024021603065CF433
:1000FE00F9013197DE011696AE0FBF1FAC91CADF24
:10010E0021503040F1CF65D0609608950A921A9230
:10011E00FA926A937A938A939A93AA93BA93EA93EA
:10012E00FA93EFB7EA932D9B02C02D9801C02D9A3A
:10013E0042D0E6B5F0E0DF01B7DFE991EFBFF9910C
:10014E00E991B991A9919991899179916991F990D2
:10015E00199009901895E7E6F0E03E2E4F2EEF2FFE
:10016E00FF27E7FDFFEFE093C5003092C400E6E005
:10017E00E093C200E8E9E093C100E0E8E09361009B
:10018E00E0E0E0936100E4B1A0E2EA17E1E009F4F7
:10019E00EE272D98259A2D9AE0E0E0938000E4E07A
:1001AE00E093810008D0E0E0E6BDE1E0E0936F006F
:1001BE007894FFCFFFCFE5E8E0938500EEEEE09375
:1001CE00840008955A934A933A932A931A930A9362
:1001DE0008955D814C813B812A81198108810895A2
:1001EE00F195E195F04008950024112490E1AA0FB5
:1001FE00BB1F001C111C0E1A1F0A18F40E0E1F1E18
:10020E0001C0A1609A9599F7FD01D001089512D011
:10021E00EBDF0EF4E5DF0895E894B7FF04C0B19567
:10022E00A195B0406894F7FDDBDFDEDFFD010EF433
:10023E00D7DF0895E894F7FF02C0D2DF6894B7FFC6
:10024E0006C0B195A195B04000F8039400FA089548
:00000001FF
