:060000000C945D000C945D
:1000060000000C9400000C9400000C9400000C946A
:1000160000000C9400000C9400000C9400000C945A
:1000260000000C9400000C9400000C9400000C944A
:1000360000000C9400000C9400000C9400000C943A
:1000460000000C9400000C9400000C9400000C942A
:1000560000000C9400000C9400000C9400000C941A
:10006600000047696120747269204144433A2000C8
:100076000A0047696120747269206469656E2061AF
:10008600703A20002E0020766F6C200A00000E00C9
:100096000003680002000E037600020010037600DB
:1000A600120012037800020024038A0007002603C8
:1000B6008C000000F894EE27EFBBF1E0F5BFE5BF3A
:1000C6008DE0A2E0BB27ED938A95E9F780E098E002
:1000D600A0E0B1E0ED930197E9F7E4E9F0E085915E
:1000E6009591009761F0A591B59105901590BF0186
:1000F600F00105900D920197E1F7FB01F0CFE0E0EA
:10010600EEBBEFEFEDBFE8E0EEBFC0E0D3E00C944E
:1001160005011A930A9307E610E0F801EF2FFF276F
:10012600E7FDFFEFE093C5000093C400E6E0E0932F
:10013600C200E8E9E093C10078944EC01A931A2FE2
:10014600E091C000E072E1F31093C60019910895A2
:10015600BA93AA932897DCD000E010E04E855F851D
:10016600F801DE011696EA0FFB1FBF01DA01EAE08D
:10017600F0E03CD1E05DDB01EC93DA01EAE0F0E08F
:100186000CD1AF010F5F1F4F042E052A49F79801C6
:100196000024021603065CF4F9013197DE01169677
:1001A600AE0FBF1FAC91CADF21503040F1CFB7D0A0
:1001B600609608951A930A938D01D801EC91E03068
:1001C60059F0AC91BBDFD801AC91AA3011F4ADE087
:1001D600B5DF0F5F1F4FF1CF099119910895E09197
:1001E6007C00E064E0937C00E0917A00E768E093AD
:1001F6007A00E0917E00E160E0937E00AAE0B0E044
:1002060015D1089586DFEBDFE0917A00E064E09394
:100216007A00E0917A00E071E1F3E0917800F091E4
:10022600790066277727E0932D03F0932E036093DA
:100236002F0370933003E0917A00E061E0937A0037
:10024600A0E0B3E0B7DFA0912D03B0912E0380DFCD
:10025600AEE0B3E0AFDFE0912D03F0912E036091A5
:100266002F0370913003A4EFB1E080E090E062D0FC
:10027600DF01CB01E0E0F4E060E070E093D0E093D2
:100286003103F09332036093330370933403A091E8
:100296003103B09132035CDFA0E1B3E08BDF2BD0FA
:1002A600B3D0E0933503F09336036093370370932E
:1002B600380321D077D0E0933903F0933A03609363
:1002C6003B0370933C03A2E1B3E074DFA0913903D2
:1002D600B0913A033DDFA4E2B3E06CDFA0913503B1
:1002E600B091360335DFA6E2B3E064DFA8EBBBE0EE
:1002F6009DD08ACFFFCFA0913103B0913203809178
:10030600330390913403E4E6F0E060E070E0089592
:100316005A934A933A932A931A930A9308955D81BE
:100326004C813B812A81198108810895F195E195D7
:10033600F04008957A9F702D6B9F700DF89F700D99
:10034600E99F700D6A9F602D710DFB9F600D711DF9
:10035600E89F600D711D8827FA9FF02D610D781FAB
:10036600EB9FF00D611D781FEA9FE02DF10D681FD0
:10037600781F08950024112490E1AA0FBB1F001CCA
:10038600111C0E1A1F0A18F40E0E1F1E01C0A160C2
:100396009A9599F7FD01D00108953AD0EBDF0EF456
:1003A600C5DF08953F934F935F9300241124A00166
:1003B60030E2AA0FBB1F881F991F001C111C441F87
:1003C600551F0E1A1F0A460B570B28F40E0E1F1E3A
:1003D600461F571F01C0A1603A9559F7FD01BC01A0
:1003E600D001CA015F914F913F910895E894B7FFFC
:1003F60004C0B195A195B0406894F7FD97DFBADFC8
:10040600FD010EF493DF0895CDDFFD01BC010895D3
:10041600E894F7FF02C08ADF6894B7FF06C0B1957B
:10042600A195B04000F8039400FA0895109639F0AB
:10043600A89580ED97E00197F1F71197C9F7089510
:00000001FF
