:0C0000000C9444000C9400000C940000D0
:10000C000C9400000C9400000C9400000C94000064
:10001C000C9400000C9400000C9400000C94000054
:10002C000C9400000C9400000C94A0000C940000A4
:10003C000C9400000C9400000C9400000C94000034
:10004C000C9400000C9400000C9400000C94000024
:10005C000C9400000C9400000C9400001027E80392
:10006C0064000A000100001000011000010025646A
:10007C00000D0A00030000037D000000F894EE2739
:10008C00EFBBF1E0F5BFE5BF8DE0A2E0BB27ED9340
:10009C008A95E9F780E098E0A0E0B1E0ED93019754
:1000AC00E9F7E0E8F0E085919591009761F0A59172
:1000BC00B59105901590BF01F00105900D92019737
:1000CC00E1F7FB01F0CFE0E0EEBBEFEFEDBFE8E0D6
:1000DC00EEBFC0E0D3E00C94AD001A931A2FE09160
:1000EC00C000E072E1F31093C600199108951A93C1
:1000FC000A938D01D801EC91E03059F0AC91EDDF11
:10010C00D801AC91AA3011F4ADE0E7DF0F5F1F4FBF
:10011C00F1CF099119910895E0E0E093C500E7E66D
:10012C00E093C400E6E0E093C200E8E9E093C1008C
:10013C0078940895EA93EFB7EA93E0917A00E0643B
:10014C00E0937A00E1D1E991EFBFE99118952A97F4
:10015C00E3DFE4E0E0938100D7D1E0916F00E16050
:10016C00E0936F00E2E4E0937C00EFEAE0937A0026
:10017C007894E0917A00E071E1F35090780060900F
:10018C007900FE01FA93EA93EAE7F0E0FA93EA9336
:10019C00E52DF62D6F2F660F660B762FFAD184E0C6
:1001AC0063D12896DE01A3DFA0E0B3E0A0DFE091ED
:1001BC007A00E061E0937A00A4E6B0E0EFD1D9CF09
:1001CC00FFCFD1D19D015E811296ED91FC911197DB
:1001DC003097E9F0D9019FD18F01309759F0023057
:1001EC00E0E01E0760F0F80131978F01D9011496F9
:1001FC00ED93FC93D901129693D131975083D90189
:10020C00ED91FC911197FF230AF08AD105C0D90119
:10021C00EFEFFFEFED93FC93ADD127960895BA93D2
:10022C00AA932697A0D110E0AC85BD85E0E0F0E064
:10023C00ED93FC93EA89FB893196EA8BFB8B319722
:10024C00E4912E2FE03009F408C1E12FE03031F4B5
:10025C00253211F411E001C069D1FEC0E130A1F4E6
:10026C00253211F463D1F7C012E040E000E02D32EA
:10027C0011F401E0F1C02B3211F44BE2EDC020324D
:10028C0011F440E2E9C002C0E23039F450E013E06E
:10029C00203311F40068E0C003C0E33009F0DCC087
:1002AC00203310F02A3308F007C0AAE05A9F502DD3
:1002BC00E22FE0535E0FD0C0E22FE33639F43DD18C
:1002CC00E889F989A481AA933ED1C5C0E33729F402
:1002DC0034D13FD100D11E2F07C0E03749F42DD1C6
:1002EC0038D105D11E2F086002600F7730E037C07F
:1002FC00E43611F0E93611F4046002C0E53731F44C
:10030C00E8E6F0E0EE83FF8315E00CC0E83511F46D
:10031C00086003C0E83709F09EC0E2E7F0E0EE8326
:10032C00FF8314E002FF15C008D1A889B98914967F
:10033C00ED91FD91EA87FB87AB85AA2322F421D1AD
:10034C00EA87FB874DE2403011F01F5F01C00B7F45
:10035C0006C0F3D0A889B989DED0EA87FB8700FDF7
:10036C0010C0151770F407FF08C002FF04C00B7F04
:10037C00242F115001C020E301C020E2D7D05150EE
:10038C00F0CF312F01FF16C0303099F003FF06C0BB
:10039C00EE81FF812591EE83FF8305C0AE81BF8185
:1003AC002D91AE83BF83C2D0503009F051503150E3
:1003BC00EBCF48C020E3EE81FF81E7D0E887F987D7
:1003CC00EE81FF813296EE83FF83E885F985AA855D
:1003DC00BB85AE17BF0750F02F5FA885B985EA859E
:1003EC00FB85EA1BFB0BEA87FB87EFCF2A3328F050
:1003FC0003FF02C0295F01C0295D04FD19C0213330
:10040C0020F4A885B985119709F409C0531710F089
:10041C0000FF01C011C020E207FF0AC020E3006109
:10042C0002FF06C00B7F4A938ED0503009F051501A
:10043C007DD0503009F051503150A885B9851297B4
:10044C0008F0B8CF00FF07C0503029F05150E0E25F
:10045C00EA9379D0F9CF10E0EDCEAC85BD85ED9166
:10046C00FD9188D064960895FF92F82E26977BD044
:10047C00FE010024EF0DF01D46855785042E052A3C
:10048C0019F4EFEFFFEF23C0DE0118960024AF0D37
:10049C00B01D8D0148875987E0E0EA87EB87DE01C4
:1004AC001C960024AF0DB01DED91FD91FA93EA93CB
:1004BC001A930A93E7EEF0E0FA93EA93DE011C96A6
:1004CC00AEDE9F01A885B985E0E0EC93F90152D02E
:1004DC002C96FF900895BA93AA93A991B991EE27FF
:1004EC00FF276D91662311F03196FBCF0895BA93D7
:1004FC00AA93AA27BB27E991F9910590002011F046
:10050C001196FBCFFD010895EFEFE0938500E0EF2E
:10051C00E093840008951496ED91FC911197089541
:10052C00ED91FD913196FE93EE9308952A93AD854E
:10053C00BE85EF85F88909950895E889F98934977E
:10054C00E88BF98B0895AD85BE85EF85F889099503
:10055C000895A889B9891496ED91FD91EE83FF83D6
:10056C00AE81BF8108955A934A933A932A931A9372
:10057C000A9308955D814C813B812A811981088100
:10058C000895F195E195F04008950590F491E02DD2
:10059C0008957A936A93FA93EA930895109639F032
:1005AC00A89580ED97E00197F1F71197C9F7089599
:00000001FF
